:020000040800F2
:100000006806002001010008D5040008A7040008C4
:10001000D1040008A9010008670B000800000000D7
:10002000000000000000000000000000550600086D
:10003000D1010008000000005D050008190100085A
:100040001B0100081B0100081B0100081B01000820
:100050001B0100081B0100081B0100081B01000810
:100060001B0100081B0100081B0100081B01000800
:100070001B0100081B0100081B0100081B010008F0
:100080001B0100081B0100081B0100081B010008E0
:100090001B0100081B0100081B0100081B010008D0
:1000A0001B0100081B0100081B0100081B010008C0
:1000B0001B0100081B0100081B0100081B010008B0
:1000C0001B0100081B0100081B0100081B010008A0
:1000D0001B010008490800081B0100081B0100085B
:1000E0001B0100081B0100081B010008DFF80CD0F1
:1000F00000F048F800480047450E00086806002058
:100100000648804706480047FEE7FEE7FEE7FEE7B1
:10011000FEE7FEE7FEE7FEE7FEE7FEE76907000809
:10012000ED00000830B505462A460B4612F8010BD3
:1001300013F8014B08B1A042F8D01CB1002802D03E
:100140006D1CF1E7284630BD421C10F8011B002948
:10015000FBD1801A704730B50B46014600202022A3
:10016000012409E021FA02F59D4205D303FA02F5C4
:10017000491B04FA02F52844151EA2F10102F1DC24
:1001800030BD0000064C074D06E0E06840F001037A
:1001900094E8070098471034AC42F6D3FFF7AAFF63
:1001A000580F0008780F000800BFFEE7002004E0A9
:1001B0000021054A1154411C88B2B0F5967FF7DB47
:1001C0000021024A117070474000002030000020DA
:1001D0007047000000B5B3B001200549086005492B
:1001E00001A800F013FD01A800F020FB33B000BD12
:1001F00034000020540E000810B5FFF7D7FF03E0CD
:100200004FF4FA7000F0F8FDC823012223A124A0C6
:1002100000F0F0FA0028F3D103E04FF4FA7000F098
:10022000EBFDC82301221DA11FA000F0E3FA002866
:10023000F3D103E04FF4FA7000F0DEFDC823012291
:100240001DA11FA000F0D6FA0028F3D103E04FF45F
:10025000FA7000F0D1FDC823022220A121A000F0F5
:10026000C9FA0028F3D103E04FF4FA7000F0C4FD9E
:10027000C823012209A125A000F0BCFA0028F3D16F
:1002800003E04FF4FA7000F0B7FDC823012203A188
:1002900022A000F0AFFA0028F3D110BD4F4B0000B0
:1002A00041540D0A0D00000041542B43574D4F445B
:1002B000453D310D0A000000474F542049500000D1
:1002C00041542B43574A41503D22475849222C2242
:1002D0003636363636363636220D0A00434F4E4E07
:1002E0004543540041542B43495053544152543DCB
:1002F00022544350222C223138332E3233302E34C4
:10030000302E3333222C38300D0A000041542B4359
:1003100049504D4F44453D310D0A000041542B4397
:10032000495053454E440D0A0000000070B5044684
:100330000025224608A10C4800F068FC0A48FFF797
:1003400003FFC51E23462A460849094800F05EFC03
:10035000074800F06BFA70BD0D0A0D0A2C3B54459E
:100360004D50332C2564000034020020C40E0008D8
:100370006C01002010B5044621460448FFF7D2FE68
:1003800008B1012010BD0020FCE700004000002063
:100390002DE9F0410246002500260020002300241C
:1003A000002791F803C00CF00F0591F803C00CF082
:1003B000100CBCF1000F03D091F802C04CEA050507
:1003C00091F800C0BCF1000F31D0146800202BE080
:1003D0004FF0010C0CFA00F3B1F800C00CEA030670
:1003E0009E4220D183004FF00F0C0CFA03F7BC4360
:1003F00005FA03FC4CEA040491F803C0BCF1280F91
:1004000006D14FF0010C0CFA00FCC2F814C00AE04F
:1004100091F803C0BCF1480F05D14FF0010C0CFA64
:1004200000FCC2F810C0401C0828D1D31460B1F8F9
:1004300000C0BCF1FF0F34DD546800202EE000F155
:10044000080C4FF0010808FA0CF3B1F800C00CEAF0
:1004500003069E4221D183004FF00F0C0CFA03F7E4
:10046000BC4305FA03FC4CEA040491F803C0BCF158
:10047000280F05D100F1080C08FA0CF8C2F8148016
:1004800091F803C0BCF1480F07D100F1080C4FF000
:10049000010808FA0CF8C2F81080401C0828CED3D6
:1004A0005460BDE8F08100BFFEE710B54FF4A060D6
:1004B00000F04AF800F07EFC4FF4E13000F056FB0B
:1004C000FFF79AFE1020FFF731FFFFF783FE10BD04
:1004D00000BFFEE77047000070B5002100230F2227
:1004E000C47804B3154C246804F4E064C4F5E064F3
:1004F000210AC1F10403CA40447804FA03F1847864
:100500001440214309010E4C0678A155047804F0EB
:100510001F050124AC4005786D11AD0005F1E02503
:10052000C5F8004109E0047804F01F050124AC403F
:10053000044D0678761145F8264070BD0CED00E0BC
:1005400000E400E080E100E002490143024A11605A
:10055000704700000000FA050CED00E07047000055
:1005600029B1064A92690243044B9A6104E0034AA6
:1005700092698243014B9A6170470000001002406B
:1005800030B500210022002400232D4D6D6805F0B8
:100590000C0121B1042905D0082923D105E0294DFA
:1005A000056022E0274D05601FE0254D6D6805F4CC
:1005B0007012234D6D6805F48034022505EB9242DC
:1005C0001CB9214D554305600BE01D4D6D6805F4C8
:1005D00000351DB11C4D5543056002E0194D5543D2
:1005E000056002E0174D056000BF00BF144D6D6847
:1005F00005F0F0010909154D6B5C0568DD404560AB
:100600000F4D6D6805F4E061090A104D6B5C45689B
:10061000DD4085600A4D6D6805F46051C90A0B4DD7
:100620006B5C4568DD40C560054D6D6805F4404173
:10063000890B074D6B5CC568B5FBF3F5056130BDF3
:100640000010024000127A0000093D00180000204E
:1006500028000020704710B500F002F810BD00001F
:100660000CB50020019000903348006840F48030C1
:100670003149086000BF3048006800F40030009045
:100680000198401C0190009818B90198B0F5A06F2E
:10069000F1D12948006800F4003010B10120009029
:1006A00001E0002000900098012843D12348006811
:1006B00040F01000214908600846006820F003005F
:1006C00008600846006840F0020008601A48406868
:1006D000194948600846406848600846406840F448
:1006E000806048600846406820F47C1048600846F6
:1006F000406840F4E81048600846006840F08070A8
:10070000086000BF0C48006800F000700028F9D0B5
:100710000948406820F003000749486008464068DF
:1007200040F00200486000BF0348406800F00C0041
:100730000828F9D10CBD0000001002400020024042
:10074000042808D14FF0E021096941F004014FF07D
:10075000E022116107E04FF0E021096921F0040176
:100760004FF0E0221161704710B51348006840F067
:1007700001001149086008464068104908400E49C8
:100780004860084600680E4908400B490860084662
:10079000006820F4802008600846406820F4FE00CD
:1007A00048604FF41F008860FFF755FF4FF000606E
:1007B0000449086010BD0000001002400000FFF86E
:1007C000FFFFF6FE08ED00E010B504460BE000BFA9
:1007D0004021074800F0F5F80028F9D014F8011B73
:1007E000034800F0BCF920780028F0D110BD0000CB
:1007F000003801402DE9F04180460C4615461E4662
:1008000000270EE0404600F011F8B0B200F0F4FA14
:100810002046FFF7AFFD10B10020BDE8F081781C45
:10082000C7B2AF42EEDB0120F7E7000010B5044687
:10083000FFF7BCFC2046FFF7C7FF02A0FFF7C4FF8D
:1008400010BD00000D0A000010B540F225514C48C3
:1008500000F0C4F8002874D02021494800F09CF82A
:10086000474800F077F94749474A12788854464884
:100870000078B0F5967F02DB0020434908704348BA
:100880000068012876D13F483F490978405C7628C6
:1008900003D101203E4908606CE03D480068012812
:1008A00009D1384838490978405C612803D10220D1
:1008B000374908605EE036480068022809D13148AF
:1008C00031490978405C6C2803D103203049086025
:1008D00050E02F480068032809D12A482A4909789E
:1008E000405C752803D104202949086042E028486B
:1008F0000068042809D1234823490978405C652809
:1009000003D105202249086034E021480068052809
:1009100009D11C481C490978405C222803D10620D3
:100920001B49086026E01A48006806280AD11548C5
:1009300015490978405C3A2804D107201449086019
:1009400018E01CE012480068072810D10D480E4935
:100950000978405C312803D101200E49086002E08B
:1009600000200C49086000200849086002E00020CF
:100970000749086004480078401C0349087010BD0E
:1009800000380140400000203000002034000020EA
:10099000380000203C00002001F40072B2F5007F16
:1009A00000D100BFCA430280704721B1828942F45E
:1009B0000052828104E082894DF6FF731A408281E1
:1009C000704702460020B1F5007F00D100BF1388B8
:1009D0000B400BB1012000E00020704770B50246CB
:1009E000002400230025002040F66A16B14200D101
:1009F00000BFC1F3421501F01F03012606FA03F3FD
:100A0000012D02D19689334006E0022D02D1168ACB
:100A1000334001E0968A33400C12012606FA04F4B2
:100A20001688344013B10CB1012000E0002070BDE5
:100A3000F0B50346002400260025002040F66A1782
:100A4000B94200D100BF1846C1F3421401F01F069D
:100A5000012707FA06F5012C01D10C3004E0022C25
:100A600001D1103000E014301AB107682F4307603D
:100A700002E00768AF430760F0BD00002DE9F047D2
:100A800086B005460E460024A24600BFA1460027B8
:100A9000B08900B100BF2F462C8A4CF6FF7004408D
:100AA000F08804432C82AC894EF6F3100440B088E1
:100AB00031890843718908430443AC81AC8A4FF6FD
:100AC000FF400440B0890443AC8201A8FFF758FD01
:100AD0001F48874202D1DDF810A001E0DDF80CA02C
:100AE000A88900F4004040B10AEBCA0000EB0A10EC
:100AF00031684900B0FBF1F807E00AEBCA0000EBEF
:100B00000A1031688900B0FBF1F86420B8FBF0F0FE
:100B100004012009642101FB1089A88900F4004028
:100B200040B1322000EBC900B0FBF1F000F007004B
:100B3000044308E0322000EB09106421B0FBF1F01F
:100B400000F00F0004432C8106B0BDE8F0870000E0
:100B50000038014001468888C0F308007047C1F39F
:100B600008028280704700BFFEE7000010B586B023
:100B70000446012144F20400FFF7F2FC4FF4007038
:100B8000ADF8140003208DF8160018208DF817001A
:100B900005A91C48FFF7FCFB4FF48060ADF814007A
:100BA00004208DF8170005A91648FFF7F1FB252052
:100BB0008DF8000003208DF801008DF8020001205F
:100BC0008DF803006846FFF787FC01940020ADF81C
:100BD0000800ADF80A00ADF80C00ADF810000C20CC
:100BE000ADF80E0001A90848FFF748FF012240F2C6
:100BF00025510548FFF71CFF01210348FFF7D5FEEB
:100C000006B010BD00080140003801400FB4084B89
:100C100010B504A902AA039800F01CF8044602A922
:100C2000002000F0C1F8204610BC5DF814FB000065
:100C3000A90D000802E008C8121F08C1002AFAD155
:100C400070477047002001E001C1121F002AFBD14C
:100C5000704700002DE9FF4F89B09B4604460025F0
:100C600006E025280BD05A460B999047641C6D1C52
:100C700020780028F5D10DB02846BDE8F08F002778
:100C8000B8460122474900E0074314F8013F203BE2
:100C900002FA03F00842F7D120782E2819D114F86F
:100CA000010F47F004072A280ED06FF02F0220789A
:100CB000A0F1300109290CD808EB880102EB4101B1
:100CC00000EB0108641CF2E70A98641C50F8048BDE
:100CD0000A9020780028CED0642808D0692806D051
:100CE00075281ED05A460B9990476D1C58E00A99FA
:100CF0004FF00A0901C90A91002802DA40422D2169
:100D000002E0390504D52B218DF82010012103E0E4
:100D1000F90704D02021F7E78A4608AE0DE000214C
:100D2000FAE70A994FF00A0901C90A91F7E749461B
:100D3000FFF711FA303106F8011D0028F7D1ADEBAD
:100D4000060000F12009780701D44FF00108C845DA
:100D500002DDA8EB090000E000208046002706E045
:100D600008A85A46C05D0B9990476D1C7F1C5745DB
:100D7000F6DB04E030205A460B9990476D1CB8F121
:100D80000001A8F10108F5DC05E016F8010B5A4650
:100D90000B9990476D1CB9F10001A9F10109F4DC30
:100DA000641C65E7092801000A68531C0B60107079
:100DB0007047000010B56FF00400FFF7C1FC0A484F
:100DC00000680A49B0FBF1F009490870084600784C
:100DD00000EB4001C1EBC0104FF6FF7101EAC0000B
:100DE0000449088010BD00000000002000127A00B5
:100DF00014000020160000200146114A12884A43C0
:100E00004FF0E0235A6100229A611A46126942F0BB
:100E100001021A6100BF4FF0E022106900F00102E8
:100E20001AB100F48032002AF5D04FF0E0221269A6
:100E300022F001024FF0E0231A6100229A6170470C
:100E400016000020FFF731FB02E00A20FFF7D4FF75
:100E5000FBE70000474554202F646576696365739E
:100E60002F3635323933363530312F646174617342
:100E7000747265616D732F54454D50204854545021
:100E80002F312E310D0A6170692D6B65793A5269E7
:100E9000706C6F6251676C3D443D584F6E6C685882
:100EA000796F3D48386837484D3D0D0A486F737477
:100EB0003A6170692E6865636C6F7564732E636F39
:100EC0006D0D0A00504F5354202F64657669636599
:100ED000732F3635323933363530312F64617461D2
:100EE000706F696E74733F747970653D3520485436
:100EF00054502F312E310D0A6170692D6B65793A8E
:100F00005269706C6F6251676C3D443D584F6E6C16
:100F10006858796F3D48386837484D3D0D0A486F2D
:100F200073743A6170692E6865636C6F7564732EB3
:100F3000636F6D0D0A436F6E74656E742D4C656E34
:100F40006774683A25640D0A0D0A2C3B54454D50D0
:100F5000332C256400000000780F000800000020FA
:100F600040000000340C0008B80F000840000020CA
:100F700028060000440C000800A24A0400000000FB
:100F80000000000001020304060708090000000039
:100F9000000000000102030401020304060708091F
:100FA000020406080000000000000000000000002D
:080FB000000000000000000039
:0400000508000101ED
:00000001FF
